{
  "_format": "hh-sol-artifact-1",
  "contractName": "Flashloan",
  "sourceName": "contracts/Flashloan.sol",
  "abi": [
    {
      "inputs": [
        {
          "internalType": "contract IPoolAddressesProvider",
          "name": "provider",
          "type": "address"
        }
      ],
      "stateMutability": "nonpayable",
      "type": "constructor"
    },
    {
      "anonymous": false,
      "inputs": [
        {
          "indexed": false,
          "internalType": "address",
          "name": "token",
          "type": "address"
        },
        {
          "indexed": false,
          "internalType": "uint256",
          "name": "amount",
          "type": "uint256"
        }
      ],
      "name": "LoanReceived",
      "type": "event"
    },
    {
      "anonymous": false,
      "inputs": [
        {
          "indexed": false,
          "internalType": "address",
          "name": "token",
          "type": "address"
        },
        {
          "indexed": false,
          "internalType": "uint256",
          "name": "amount",
          "type": "uint256"
        }
      ],
      "name": "LoanRepaid",
      "type": "event"
    },
    {
      "anonymous": false,
      "inputs": [
        {
          "indexed": false,
          "internalType": "string",
          "name": "reason",
          "type": "string"
        }
      ],
      "name": "OperationFailed",
      "type": "event"
    },
    {
      "inputs": [],
      "name": "ADDRESSES_PROVIDER",
      "outputs": [
        {
          "internalType": "contract IPoolAddressesProvider",
          "name": "",
          "type": "address"
        }
      ],
      "stateMutability": "view",
      "type": "function"
    },
    {
      "inputs": [],
      "name": "POOL",
      "outputs": [
        {
          "internalType": "contract IPool",
          "name": "",
          "type": "address"
        }
      ],
      "stateMutability": "view",
      "type": "function"
    },
    {
      "inputs": [
        {
          "components": [
            {
              "internalType": "address",
              "name": "FlashLoanPool",
              "type": "address"
            },
            {
              "internalType": "uint256",
              "name": "loanAmount",
              "type": "uint256"
            },
            {
              "components": [
                {
                  "components": [
                    {
                      "internalType": "address",
                      "name": "tokenIn",
                      "type": "address"
                    },
                    {
                      "internalType": "address",
                      "name": "tokenOut",
                      "type": "address"
                    },
                    {
                      "internalType": "uint256",
                      "name": "amountIn",
                      "type": "uint256"
                    },
                    {
                      "internalType": "uint256",
                      "name": "amountOutMin",
                      "type": "uint256"
                    }
                  ],
                  "internalType": "struct IFlashloan.Hop[]",
                  "name": "hops",
                  "type": "tuple[]"
                }
              ],
              "internalType": "struct IFlashloan.Route[]",
              "name": "routes",
              "type": "tuple[]"
            }
          ],
          "internalType": "struct IFlashloan.FlashParams",
          "name": "params",
          "type": "tuple"
        }
      ],
      "name": "executeFlashLoan",
      "outputs": [],
      "stateMutability": "nonpayable",
      "type": "function"
    },
    {
      "inputs": [
        {
          "internalType": "address[]",
          "name": "assets",
          "type": "address[]"
        },
        {
          "internalType": "uint256[]",
          "name": "amounts",
          "type": "uint256[]"
        },
        {
          "internalType": "uint256[]",
          "name": "premiums",
          "type": "uint256[]"
        },
        {
          "internalType": "address",
          "name": "initiator",
          "type": "address"
        },
        {
          "internalType": "bytes",
          "name": "params",
          "type": "bytes"
        }
      ],
      "name": "executeOperation",
      "outputs": [
        {
          "internalType": "bool",
          "name": "",
          "type": "bool"
        }
      ],
      "stateMutability": "nonpayable",
      "type": "function"
    },
    {
      "inputs": [
        {
          "components": [
            {
              "internalType": "address",
              "name": "FlashLoanPool",
              "type": "address"
            },
            {
              "internalType": "uint256",
              "name": "loanAmount",
              "type": "uint256"
            },
            {
              "components": [
                {
                  "components": [
                    {
                      "internalType": "address",
                      "name": "tokenIn",
                      "type": "address"
                    },
                    {
                      "internalType": "address",
                      "name": "tokenOut",
                      "type": "address"
                    },
                    {
                      "internalType": "uint256",
                      "name": "amountIn",
                      "type": "uint256"
                    },
                    {
                      "internalType": "uint256",
                      "name": "amountOutMin",
                      "type": "uint256"
                    }
                  ],
                  "internalType": "struct IFlashloan.Hop[]",
                  "name": "hops",
                  "type": "tuple[]"
                }
              ],
              "internalType": "struct IFlashloan.Route[]",
              "name": "routes",
              "type": "tuple[]"
            }
          ],
          "internalType": "struct IFlashloan.FlashParams",
          "name": "params",
          "type": "tuple"
        }
      ],
      "name": "requestFlashLoan",
      "outputs": [],
      "stateMutability": "nonpayable",
      "type": "function"
    }
  ],
  "bytecode": "0x60c060405234801561001057600080fd5b50604051610ea5380380610ea583398101604081905261002f916100d8565b80806001600160a01b03166080816001600160a01b031681525050806001600160a01b031663026b1d5f6040518163ffffffff1660e01b8152600401602060405180830381865afa158015610088573d6000803e3d6000fd5b505050506040513d601f19601f820116820180604052508101906100ac91906100d8565b6001600160a01b031660a052506100fc9050565b6001600160a01b03811681146100d557600080fd5b50565b6000602082840312156100ea57600080fd5b81516100f5816100c0565b9392505050565b60805160a051610d7861012d6000396000818160ba0152818161026a015261054f0152600060610152610d786000f3fe608060405234801561001057600080fd5b50600436106100575760003560e01c80630542975c1461005c57806344fe701a146100a05780637535d246146100b5578063920f5c84146100dc578063d3d6a97c146100ff575b600080fd5b6100837f000000000000000000000000000000000000000000000000000000000000000081565b6040516001600160a01b0390911681526020015b60405180910390f35b6100b36100ae366004610754565b610112565b005b6100837f000000000000000000000000000000000000000000000000000000000000000081565b6100ef6100ea366004610982565b6103d1565b6040519015158152602001610097565b6100b361010d366004610754565b610652565b60408051600180825281830190925230916000919060208083019080368337019050509050826040015160008151811061014e5761014e610a86565b60200260200101516000015160008151811061016c5761016c610a86565b6020026020010151600001518160008151811061018b5761018b610a86565b6001600160a01b0392909216602092830291909101909101526040805160018082528183019092526000918160200160208202803683370190505090508360200151816000815181106101e0576101e0610a86565b602090810291909101015260408051600180825281830190925260009181602001602082028036833701905050905060008160008151811061022457610224610a86565b6020026020010181815250506000856040516020016102439190610a9c565b60408051601f198184030181529082905263ab9c4b5d60e01b825291506001600160a01b037f0000000000000000000000000000000000000000000000000000000000000000169063ab9c4b5d906102ac90889088908890889030908990600090600401610c02565b600060405180830381600087803b1580156102c657600080fd5b505af19250505080156102d7575060015b610347577f30024b247c7fb2eb5c560ad78987e1319ca2813e167ae8483d4a6f60517bd89960405161033a9060208082526019908201527f466c617368206c6f616e2072657175657374206661696c656400000000000000604082015260600190565b60405180910390a16103c9565b7f1eb85bd961c2383a0fab35aca88c37d338e2c256ca614015fb37027205bfe9498460008151811061037b5761037b610a86565b60200260200101518460008151811061039657610396610a86565b60200260200101516040516103c09291906001600160a01b03929092168252602082015260400190565b60405180910390a15b505050505050565b6000806103e083850185610754565b905060005b8a81101561064057600088888381811061040157610401610a86565b905060200201358b8b8481811061041a5761041a610a86565b9050602002013561042b9190610cbe565b9050808d8d8481811061044057610440610a86565b90506020020160208101906104559190610ce5565b6040516370a0823160e01b81523060048201526001600160a01b0391909116906370a0823190602401602060405180830381865afa15801561049b573d6000803e3d6000fd5b505050506040513d601f19601f820116820180604052508101906104bf9190610d07565b10156105115760405162461bcd60e51b815260206004820181905260248201527f496e73756666696369656e742066756e647320746f207265706179206c6f616e604482015260640160405180910390fd5b8c8c8381811061052357610523610a86565b90506020020160208101906105389190610ce5565b60405163095ea7b360e01b81526001600160a01b037f00000000000000000000000000000000000000000000000000000000000000008116600483015260248201849052919091169063095ea7b3906044016020604051808303816000875af11580156105a9573d6000803e3d6000fd5b505050506040513d601f19601f820116820180604052508101906105cd9190610d20565b507fc200a1f31dd659e356e0f112c82558e25f49f7b0f84438691cd96f5cb35588238d8d8481811061060157610601610a86565b90506020020160208101906106169190610ce5565b604080516001600160a01b039092168252602082018490520160405180910390a1506001016103e5565b5060019b9a5050505050505050505050565b61065b81610112565b50565b634e487b7160e01b600052604160045260246000fd5b6040516060810167ffffffffffffffff811182821017156106975761069761065e565b60405290565b6040516020810167ffffffffffffffff811182821017156106975761069761065e565b6040516080810167ffffffffffffffff811182821017156106975761069761065e565b604051601f8201601f1916810167ffffffffffffffff8111828210171561070c5761070c61065e565b604052919050565b80356001600160a01b038116811461072b57600080fd5b919050565b600067ffffffffffffffff82111561074a5761074a61065e565b5060051b60200190565b60006020828403121561076657600080fd5b67ffffffffffffffff808335111561077d57600080fd5b823583016060818603121561079157600080fd5b610799610674565b6107a282610714565b81526020820135602082015282604083013511156107bf57600080fd5b60408201358201915085601f8301126107d757600080fd5b6107e96107e48335610730565b6106e3565b82358082526020808301929160051b85010188101561080757600080fd5b602084015b6020853560051b86010181101561092657858135111561082b57600080fd5b803585016020818b03601f1901121561084357600080fd5b61084b61069d565b876020830135111561085c57600080fd5b6020820135820191508a603f83011261087457600080fd5b6108846107e46020840135610730565b602083810135808352908201919060071b84016040018d8111156108a757600080fd5b6040850194505b80851015610913576080858f0312156108c657600080fd5b6108ce6106c0565b6108d786610714565b81526108e560208701610714565b60208201526040860135604082015260608601356060820152808452506020830192506080850194506108ae565b508252508452506020928301920161080c565b5060408301525095945050505050565b60008083601f84011261094857600080fd5b50813567ffffffffffffffff81111561096057600080fd5b6020830191508360208260051b850101111561097b57600080fd5b9250929050565b600080600080600080600080600060a08a8c0312156109a057600080fd5b893567ffffffffffffffff808211156109b857600080fd5b6109c48d838e01610936565b909b50995060208c01359150808211156109dd57600080fd5b6109e98d838e01610936565b909950975060408c0135915080821115610a0257600080fd5b610a0e8d838e01610936565b9097509550859150610a2260608d01610714565b945060808c0135915080821115610a3857600080fd5b818c0191508c601f830112610a4c57600080fd5b813581811115610a5b57600080fd5b8d6020828501011115610a6d57600080fd5b6020830194508093505050509295985092959850929598565b634e487b7160e01b600052603260045260246000fd5b600060208083526080830160018060a01b03808651168386015282860151604081604088015260408801519150606080606089015284835180875260a08a01915060a08160051b8b0101965087850194506000805b82811015610b6f578b8903609f190184528651518a8a5280518b8b01819052908b01908390888c01905b80831015610b5a57835180518d1683528e8101518d168f8401528a8101518b84015289015189830152928d019260019290920191608090910190610b1b565b509a5050509589019592890192600101610af1565b50969b9a5050505050505050505050565b60008151808452602080850194506020840160005b83811015610bb157815187529582019590820190600101610b95565b509495945050505050565b6000815180845260005b81811015610be257602081850181015186830182015201610bc6565b506000602082860101526020601f19601f83011685010191505092915050565b6001600160a01b03888116825260e0602080840182905289519184018290526000928a820192909190610100860190855b81811015610c51578551851683529483019491830191600101610c33565b50508581036040870152610c65818c610b80565b93505050508281036060840152610c7c8188610b80565b6001600160a01b0387166080850152905082810360a0840152610c9f8186610bbc565b915050610cb260c083018461ffff169052565b98975050505050505050565b80820180821115610cdf57634e487b7160e01b600052601160045260246000fd5b92915050565b600060208284031215610cf757600080fd5b610d0082610714565b9392505050565b600060208284031215610d1957600080fd5b5051919050565b600060208284031215610d3257600080fd5b81518015158114610d0057600080fdfea26469706673582212207dff75d26fb80dbd9a632b9efc08c52de3cfb7c72785d59e63567bc7d4e568b264736f6c63430008180033",
  "linkReferences": {},
  "deployedLinkReferences": {}
}