{
  "_format": "hh-sol-artifact-1",
  "contractName": "Side",
  "sourceName": "contracts/Side.sol",
  "abi": [
    {
      "inputs": [
        {
          "internalType": "contract IPoolAddressesProvider",
          "name": "provider",
          "type": "address"
        },
        {
          "internalType": "address",
          "name": "_uniswapPool",
          "type": "address"
        },
        {
          "internalType": "address",
          "name": "_sushiswapPool",
          "type": "address"
        }
      ],
      "stateMutability": "nonpayable",
      "type": "constructor"
    },
    {
      "inputs": [
        {
          "internalType": "address",
          "name": "owner",
          "type": "address"
        }
      ],
      "name": "OwnableInvalidOwner",
      "type": "error"
    },
    {
      "inputs": [
        {
          "internalType": "address",
          "name": "account",
          "type": "address"
        }
      ],
      "name": "OwnableUnauthorizedAccount",
      "type": "error"
    },
    {
      "anonymous": false,
      "inputs": [
        {
          "indexed": true,
          "internalType": "address",
          "name": "previousOwner",
          "type": "address"
        },
        {
          "indexed": true,
          "internalType": "address",
          "name": "newOwner",
          "type": "address"
        }
      ],
      "name": "OwnershipTransferred",
      "type": "event"
    },
    {
      "inputs": [],
      "name": "ADDRESSES_PROVIDER",
      "outputs": [
        {
          "internalType": "contract IPoolAddressesProvider",
          "name": "",
          "type": "address"
        }
      ],
      "stateMutability": "view",
      "type": "function"
    },
    {
      "inputs": [],
      "name": "POOL",
      "outputs": [
        {
          "internalType": "contract IPool",
          "name": "",
          "type": "address"
        }
      ],
      "stateMutability": "view",
      "type": "function"
    },
    {
      "inputs": [
        {
          "internalType": "address[]",
          "name": "assets",
          "type": "address[]"
        },
        {
          "internalType": "uint256[]",
          "name": "amounts",
          "type": "uint256[]"
        },
        {
          "internalType": "uint256[]",
          "name": "premiums",
          "type": "uint256[]"
        },
        {
          "internalType": "address",
          "name": "initiator",
          "type": "address"
        },
        {
          "internalType": "bytes",
          "name": "params",
          "type": "bytes"
        }
      ],
      "name": "executeOperation",
      "outputs": [
        {
          "internalType": "bool",
          "name": "",
          "type": "bool"
        }
      ],
      "stateMutability": "nonpayable",
      "type": "function"
    },
    {
      "inputs": [],
      "name": "owner",
      "outputs": [
        {
          "internalType": "address",
          "name": "",
          "type": "address"
        }
      ],
      "stateMutability": "view",
      "type": "function"
    },
    {
      "inputs": [],
      "name": "renounceOwnership",
      "outputs": [],
      "stateMutability": "nonpayable",
      "type": "function"
    },
    {
      "inputs": [
        {
          "components": [
            {
              "internalType": "address",
              "name": "FlashLoanPool",
              "type": "address"
            },
            {
              "internalType": "uint256",
              "name": "loanAmount",
              "type": "uint256"
            },
            {
              "components": [
                {
                  "components": [
                    {
                      "internalType": "address",
                      "name": "tokenIn",
                      "type": "address"
                    },
                    {
                      "internalType": "address",
                      "name": "tokenOut",
                      "type": "address"
                    },
                    {
                      "internalType": "uint256",
                      "name": "amountIn",
                      "type": "uint256"
                    },
                    {
                      "internalType": "uint256",
                      "name": "amountOutMin",
                      "type": "uint256"
                    }
                  ],
                  "internalType": "struct IFlashloan.Hop[]",
                  "name": "hops",
                  "type": "tuple[]"
                }
              ],
              "internalType": "struct IFlashloan.Route[]",
              "name": "routes",
              "type": "tuple[]"
            }
          ],
          "internalType": "struct IFlashloan.FlashParams",
          "name": "params",
          "type": "tuple"
        }
      ],
      "name": "requestFlashLoan",
      "outputs": [],
      "stateMutability": "nonpayable",
      "type": "function"
    },
    {
      "inputs": [],
      "name": "sushiswapPool",
      "outputs": [
        {
          "internalType": "address",
          "name": "",
          "type": "address"
        }
      ],
      "stateMutability": "view",
      "type": "function"
    },
    {
      "inputs": [
        {
          "internalType": "address",
          "name": "newOwner",
          "type": "address"
        }
      ],
      "name": "transferOwnership",
      "outputs": [],
      "stateMutability": "nonpayable",
      "type": "function"
    },
    {
      "inputs": [],
      "name": "uniswapPool",
      "outputs": [
        {
          "internalType": "address",
          "name": "",
          "type": "address"
        }
      ],
      "stateMutability": "view",
      "type": "function"
    }
  ],
  "bytecode": "0x60c060405234801561001057600080fd5b5060405162000d8e38038062000d8e83398101604081905261003191610189565b3383806001600160a01b03166080816001600160a01b031681525050806001600160a01b031663026b1d5f6040518163ffffffff1660e01b8152600401602060405180830381865afa15801561008b573d6000803e3d6000fd5b505050506040513d601f19601f820116820180604052508101906100af91906101d6565b6001600160a01b0390811660a052821690506100e557604051631e4fbdf760e01b81526000600482015260240160405180910390fd5b6100ee81610121565b50600180546001600160a01b039384166001600160a01b03199182161790915560028054929093169116179055506101fa565b600080546001600160a01b038381166001600160a01b0319831681178455604051919092169283917f8be0079c531659141344cd1fd0a4f28419497f9722a3daafe3b4186f6b6457e09190a35050565b6001600160a01b038116811461018657600080fd5b50565b60008060006060848603121561019e57600080fd5b83516101a981610171565b60208501519093506101ba81610171565b60408501519092506101cb81610171565b809150509250925092565b6000602082840312156101e857600080fd5b81516101f381610171565b9392505050565b60805160a051610b626200022c6000396000818160fe015281816102d201526103ec01526000609d0152610b626000f3fe608060405234801561001057600080fd5b50600436106100935760003560e01c80638da5cb5b116100665780638da5cb5b14610120578063920f5c8414610131578063bdd3d82514610154578063e54a854a14610167578063f2fde38b1461017a57600080fd5b80630542975c1461009857806344fe701a146100dc578063715018a6146100f15780637535d246146100f9575b600080fd5b6100bf7f000000000000000000000000000000000000000000000000000000000000000081565b6040516001600160a01b0390911681526020015b60405180910390f35b6100ef6100ea36600461063b565b61018d565b005b6100ef61034e565b6100bf7f000000000000000000000000000000000000000000000000000000000000000081565b6000546001600160a01b03166100bf565b61014461013f366004610869565b610362565b60405190151581526020016100d3565b6001546100bf906001600160a01b031681565b6002546100bf906001600160a01b031681565b6100ef61018836600461096d565b610485565b6040805160018082528183019092523091600091906020808301908036833701905050905082604001516000815181106101c9576101c961098f565b6020026020010151600001516000815181106101e7576101e761098f565b602002602001015160000151816000815181106102065761020661098f565b6001600160a01b03929092166020928302919091019091015260408051600180825281830190925260009181602001602082028036833701905050905083602001518160008151811061025b5761025b61098f565b602090810291909101015260408051600180825281830190925260009181602001602082028036833701905050905060008160008151811061029f5761029f61098f565b6020908102919091018101919091526040805191820181526000808352905163ab9c4b5d60e01b81526001600160a01b037f0000000000000000000000000000000000000000000000000000000000000000169063ab9c4b5d9061031390899089908990899030908a908a90600401610a27565b600060405180830381600087803b15801561032d57600080fd5b505af1158015610341573d6000803e3d6000fd5b5050505050505050505050565b6103566104c8565b61036060006104f5565b565b6000805b898110156104745760008787838181106103825761038261098f565b905060200201358a8a8481811061039b5761039b61098f565b905060200201356103ac9190610ae3565b90508b8b838181106103c0576103c061098f565b90506020020160208101906103d5919061096d565b60405163095ea7b360e01b81526001600160a01b037f00000000000000000000000000000000000000000000000000000000000000008116600483015260248201849052919091169063095ea7b3906044016020604051808303816000875af1158015610446573d6000803e3d6000fd5b505050506040513d601f19601f8201168201806040525081019061046a9190610b0a565b5050600101610366565b5060019a9950505050505050505050565b61048d6104c8565b6001600160a01b0381166104bc57604051631e4fbdf760e01b8152600060048201526024015b60405180910390fd5b6104c5816104f5565b50565b6000546001600160a01b031633146103605760405163118cdaa760e01b81523360048201526024016104b3565b600080546001600160a01b038381166001600160a01b0319831681178455604051919092169283917f8be0079c531659141344cd1fd0a4f28419497f9722a3daafe3b4186f6b6457e09190a35050565b634e487b7160e01b600052604160045260246000fd5b6040516060810167ffffffffffffffff8111828210171561057e5761057e610545565b60405290565b6040516020810167ffffffffffffffff8111828210171561057e5761057e610545565b6040516080810167ffffffffffffffff8111828210171561057e5761057e610545565b604051601f8201601f1916810167ffffffffffffffff811182821017156105f3576105f3610545565b604052919050565b80356001600160a01b038116811461061257600080fd5b919050565b600067ffffffffffffffff82111561063157610631610545565b5060051b60200190565b60006020828403121561064d57600080fd5b67ffffffffffffffff808335111561066457600080fd5b823583016060818603121561067857600080fd5b61068061055b565b610689826105fb565b81526020820135602082015282604083013511156106a657600080fd5b60408201358201915085601f8301126106be57600080fd5b6106d06106cb8335610617565b6105ca565b82358082526020808301929160051b8501018810156106ee57600080fd5b602084015b6020853560051b86010181101561080d57858135111561071257600080fd5b803585016020818b03601f1901121561072a57600080fd5b610732610584565b876020830135111561074357600080fd5b6020820135820191508a603f83011261075b57600080fd5b61076b6106cb6020840135610617565b602083810135808352908201919060071b84016040018d81111561078e57600080fd5b6040850194505b808510156107fa576080858f0312156107ad57600080fd5b6107b56105a7565b6107be866105fb565b81526107cc602087016105fb565b6020820152604086013560408201526060860135606082015280845250602083019250608085019450610795565b50825250845250602092830192016106f3565b5060408301525095945050505050565b60008083601f84011261082f57600080fd5b50813567ffffffffffffffff81111561084757600080fd5b6020830191508360208260051b850101111561086257600080fd5b9250929050565b600080600080600080600080600060a08a8c03121561088757600080fd5b893567ffffffffffffffff8082111561089f57600080fd5b6108ab8d838e0161081d565b909b50995060208c01359150808211156108c457600080fd5b6108d08d838e0161081d565b909950975060408c01359150808211156108e957600080fd5b6108f58d838e0161081d565b909750955085915061090960608d016105fb565b945060808c013591508082111561091f57600080fd5b818c0191508c601f83011261093357600080fd5b81358181111561094257600080fd5b8d602082850101111561095457600080fd5b6020830194508093505050509295985092959850929598565b60006020828403121561097f57600080fd5b610988826105fb565b9392505050565b634e487b7160e01b600052603260045260246000fd5b60008151808452602080850194506020840160005b838110156109d6578151875295820195908201906001016109ba565b509495945050505050565b6000815180845260005b81811015610a07576020818501810151868301820152016109eb565b506000602082860101526020601f19601f83011685010191505092915050565b6001600160a01b03888116825260e0602080840182905289519184018290526000928a820192909190610100860190855b81811015610a76578551851683529483019491830191600101610a58565b50508581036040870152610a8a818c6109a5565b93505050508281036060840152610aa181886109a5565b6001600160a01b0387166080850152905082810360a0840152610ac481866109e1565b915050610ad760c083018461ffff169052565b98975050505050505050565b80820180821115610b0457634e487b7160e01b600052601160045260246000fd5b92915050565b600060208284031215610b1c57600080fd5b8151801515811461098857600080fdfea26469706673582212207aa5c37744b33ea3727bce542e89b364342d242772aa874594f78fe481c1227e64736f6c63430008180033",
  "linkReferences": {},
  "deployedLinkReferences": {}
}